{
  "_format": "hh-sol-artifact-1",
  "contractName": "BuyMeACoffee",
  "sourceName": "contracts/BuyMeACoffee.sol",
  "abi": [
    {
      "inputs": [],
      "stateMutability": "nonpayable",
      "type": "constructor"
    },
    {
      "anonymous": false,
      "inputs": [
        {
          "indexed": true,
          "internalType": "address",
          "name": "from",
          "type": "address"
        },
        {
          "indexed": false,
          "internalType": "uint256",
          "name": "timestamp",
          "type": "uint256"
        },
        {
          "indexed": false,
          "internalType": "string",
          "name": "name",
          "type": "string"
        },
        {
          "indexed": false,
          "internalType": "string",
          "name": "message",
          "type": "string"
        }
      ],
      "name": "NewMemo",
      "type": "event"
    },
    {
      "inputs": [
        {
          "internalType": "string",
          "name": "_name",
          "type": "string"
        },
        {
          "internalType": "string",
          "name": "_message",
          "type": "string"
        }
      ],
      "name": "buyCoffee",
      "outputs": [],
      "stateMutability": "payable",
      "type": "function"
    },
    {
      "inputs": [],
      "name": "getAllMemos",
      "outputs": [
        {
          "components": [
            {
              "internalType": "address",
              "name": "from",
              "type": "address"
            },
            {
              "internalType": "uint256",
              "name": "timestamp",
              "type": "uint256"
            },
            {
              "internalType": "string",
              "name": "name",
              "type": "string"
            },
            {
              "internalType": "string",
              "name": "message",
              "type": "string"
            }
          ],
          "internalType": "struct BuyMeACoffee.Memo[]",
          "name": "",
          "type": "tuple[]"
        }
      ],
      "stateMutability": "view",
      "type": "function"
    },
    {
      "inputs": [
        {
          "internalType": "address",
          "name": "to",
          "type": "address"
        }
      ],
      "name": "transferOwnership",
      "outputs": [],
      "stateMutability": "nonpayable",
      "type": "function"
    },
    {
      "inputs": [],
      "name": "withdrawTips",
      "outputs": [],
      "stateMutability": "nonpayable",
      "type": "function"
    }
  ],
  "bytecode": "0x608060405234801561001057600080fd5b5033600160006101000a81548173ffffffffffffffffffffffffffffffffffffffff021916908373ffffffffffffffffffffffffffffffffffffffff160217905550610bd5806100616000396000f3fe60806040526004361061003f5760003560e01c8063204206e1146100445780633aaa74b2146100605780635a681c5414610077578063f2fde38b146100a2575b600080fd5b61005e60048036038101906100599190610733565b6100cb565b005b34801561006c57600080fd5b50610075610253565b005b34801561008357600080fd5b5061008c6102b5565b60405161009991906109b9565b60405180910390f35b3480156100ae57600080fd5b506100c960048036038101906100c49190610a07565b610498565b005b6000341161010e576040517f08c379a000000000000000000000000000000000000000000000000000000000815260040161010590610a91565b60405180910390fd5b600060405180608001604052803373ffffffffffffffffffffffffffffffffffffffff16815260200142815260200184815260200183815250908060018154018082558091505060019003906000526020600020906004020160009091909190915060008201518160000160006101000a81548173ffffffffffffffffffffffffffffffffffffffff021916908373ffffffffffffffffffffffffffffffffffffffff1602179055506020820151816001015560408201518160020190805190602001906101dd929190610536565b5060608201518160030190805190602001906101fa929190610536565b5050503373ffffffffffffffffffffffffffffffffffffffff167fc56140e05f516509ae28110e0f72e17558a7561630dad2647c3ae87d986e365c42848460405161024793929190610af9565b60405180910390a25050565b600160009054906101000a900473ffffffffffffffffffffffffffffffffffffffff1673ffffffffffffffffffffffffffffffffffffffff166108fc479081150290604051600060405180830381858888f193505050506102b357600080fd5b565b60606000805480602002602001604051908101604052809291908181526020016000905b8282101561048f57838290600052602060002090600402016040518060800160405290816000820160009054906101000a900473ffffffffffffffffffffffffffffffffffffffff1673ffffffffffffffffffffffffffffffffffffffff1673ffffffffffffffffffffffffffffffffffffffff1681526020016001820154815260200160028201805461036c90610b6d565b80601f016020809104026020016040519081016040528092919081815260200182805461039890610b6d565b80156103e55780601f106103ba576101008083540402835291602001916103e5565b820191906000526020600020905b8154815290600101906020018083116103c857829003601f168201915b505050505081526020016003820180546103fe90610b6d565b80601f016020809104026020016040519081016040528092919081815260200182805461042a90610b6d565b80156104775780601f1061044c57610100808354040283529160200191610477565b820191906000526020600020905b81548152906001019060200180831161045a57829003601f168201915b505050505081525050815260200190600101906102d9565b50505050905090565b600160009054906101000a900473ffffffffffffffffffffffffffffffffffffffff1673ffffffffffffffffffffffffffffffffffffffff163373ffffffffffffffffffffffffffffffffffffffff16146104f257600080fd5b80600160006101000a81548173ffffffffffffffffffffffffffffffffffffffff021916908373ffffffffffffffffffffffffffffffffffffffff16021790555050565b82805461054290610b6d565b90600052602060002090601f01602090048101928261056457600085556105ab565b82601f1061057d57805160ff19168380011785556105ab565b828001600101855582156105ab579182015b828111156105aa57825182559160200191906001019061058f565b5b5090506105b891906105bc565b5090565b5b808211156105d55760008160009055506001016105bd565b5090565b6000604051905090565b600080fd5b600080fd5b600080fd5b600080fd5b6000601f19601f8301169050919050565b7f4e487b7100000000000000000000000000000000000000000000000000000000600052604160045260246000fd5b610640826105f7565b810181811067ffffffffffffffff8211171561065f5761065e610608565b5b80604052505050565b60006106726105d9565b905061067e8282610637565b919050565b600067ffffffffffffffff82111561069e5761069d610608565b5b6106a7826105f7565b9050602081019050919050565b82818337600083830152505050565b60006106d66106d184610683565b610668565b9050828152602081018484840111156106f2576106f16105f2565b5b6106fd8482856106b4565b509392505050565b600082601f83011261071a576107196105ed565b5b813561072a8482602086016106c3565b91505092915050565b6000806040838503121561074a576107496105e3565b5b600083013567ffffffffffffffff811115610768576107676105e8565b5b61077485828601610705565b925050602083013567ffffffffffffffff811115610795576107946105e8565b5b6107a185828601610705565b9150509250929050565b600081519050919050565b600082825260208201905092915050565b6000819050602082019050919050565b600073ffffffffffffffffffffffffffffffffffffffff82169050919050565b6000610802826107d7565b9050919050565b610812816107f7565b82525050565b6000819050919050565b61082b81610818565b82525050565b600081519050919050565b600082825260208201905092915050565b60005b8381101561086b578082015181840152602081019050610850565b8381111561087a576000848401525b50505050565b600061088b82610831565b610895818561083c565b93506108a581856020860161084d565b6108ae816105f7565b840191505092915050565b60006080830160008301516108d16000860182610809565b5060208301516108e46020860182610822565b50604083015184820360408601526108fc8282610880565b915050606083015184820360608601526109168282610880565b9150508091505092915050565b600061092f83836108b9565b905092915050565b6000602082019050919050565b600061094f826107ab565b61095981856107b6565b93508360208202850161096b856107c7565b8060005b858110156109a757848403895281516109888582610923565b945061099383610937565b925060208a0199505060018101905061096f565b50829750879550505050505092915050565b600060208201905081810360008301526109d38184610944565b905092915050565b6109e4816107f7565b81146109ef57600080fd5b50565b600081359050610a01816109db565b92915050565b600060208284031215610a1d57610a1c6105e3565b5b6000610a2b848285016109f2565b91505092915050565b600082825260208201905092915050565b7f43616e27742062757920636f6666656520776974682030657468203a28000000600082015250565b6000610a7b601d83610a34565b9150610a8682610a45565b602082019050919050565b60006020820190508181036000830152610aaa81610a6e565b9050919050565b610aba81610818565b82525050565b6000610acb82610831565b610ad58185610a34565b9350610ae581856020860161084d565b610aee816105f7565b840191505092915050565b6000606082019050610b0e6000830186610ab1565b8181036020830152610b208185610ac0565b90508181036040830152610b348184610ac0565b9050949350505050565b7f4e487b7100000000000000000000000000000000000000000000000000000000600052602260045260246000fd5b60006002820490506001821680610b8557607f821691505b60208210811415610b9957610b98610b3e565b5b5091905056fea2646970667358221220b12afc2204ba174305d7dda568d660589d2468db9176295ee7d47452288b5cb764736f6c63430008090033",
  "linkReferences": {},
  "deployedLinkReferences": {}
}